{
  "transactions": [
    {
      "hash": "0x93ab3e3899e2132ac09475e491bc17c8e884d4959d2df0f40d554069fc8f4292",
      "transactionType": "CALL",
      "contractName": "LinkToken",
      "contractAddress": "0x779877A7B0D9E8603169DdbD7836e478b4624789",
      "function": "transferAndCall(address,uint256,bytes):(bool)",
      "arguments": [
        "0x8103B0A8A00be2DDC778e6e7eaa21791Cd364625",
        "3000000000000000000",
        "0x0000000000000000000000000000000000000000000000000000000000001620"
      ],
      "transaction": {
        "type": "0x02",
        "from": "0xdfedd116e09ab9a877b08e0e348b6299289643cd",
        "to": "0x779877a7b0d9e8603169ddbd7836e478b4624789",
        "gas": "0x13fbe",
        "value": "0x0",
        "data": "0x4000aea00000000000000000000000008103b0a8a00be2ddc778e6e7eaa21791cd36462500000000000000000000000000000000000000000000000029a2241af62c0000000000000000000000000000000000000000000000000000000000000000006000000000000000000000000000000000000000000000000000000000000000200000000000000000000000000000000000000000000000000000000000001620",
        "nonce": "0x5e",
        "accessList": []
      },
      "additionalContracts": [],
      "isFixedGasLimit": false
    }
  ],
  "receipts": [],
  "libraries": [],
  "pending": [
    "0x93ab3e3899e2132ac09475e491bc17c8e884d4959d2df0f40d554069fc8f4292"
  ],
  "returns": {},
  "timestamp": 1696342194,
  "chain": 11155111,
  "multi": false,
  "commit": "84c6d72"
}