{
  "transactions": [
    {
      "hash": "0x93ab3e3899e2132ac09475e491bc17c8e884d4959d2df0f40d554069fc8f4292",
      "transactionType": "CALL",
      "contractName": "LinkToken",
      "contractAddress": "0x779877A7B0D9E8603169DdbD7836e478b4624789",
      "function": "transferAndCall(address,uint256,bytes):(bool)",
      "arguments": [
        "0x8103B0A8A00be2DDC778e6e7eaa21791Cd364625",
        "3000000000000000000",
        "0x0000000000000000000000000000000000000000000000000000000000001620"
      ],
      "transaction": {
        "type": "0x02",
        "from": "0xdfedd116e09ab9a877b08e0e348b6299289643cd",
        "to": "0x779877a7b0d9e8603169ddbd7836e478b4624789",
        "gas": "0x13fbe",
        "value": "0x0",
        "data": "0x4000aea00000000000000000000000008103b0a8a00be2ddc778e6e7eaa21791cd36462500000000000000000000000000000000000000000000000029a2241af62c0000000000000000000000000000000000000000000000000000000000000000006000000000000000000000000000000000000000000000000000000000000000200000000000000000000000000000000000000000000000000000000000001620",
        "nonce": "0x5e",
        "accessList": []
      },
      "additionalContracts": [],
      "isFixedGasLimit": false
    }
  ],
  "receipts": [
    {
      "transactionHash": "0x93ab3e3899e2132ac09475e491bc17c8e884d4959d2df0f40d554069fc8f4292",
      "transactionIndex": "0x9",
      "blockHash": "0x8582d61ef1dd2f1a1d4bd2012615219695e035b9d4c3fbc15f14cb84874c2b28",
      "blockNumber": "0x436415",
      "from": "0xDfEDD116e09aB9a877b08e0E348B6299289643cd",
      "to": "0x779877A7B0D9E8603169DdbD7836e478b4624789",
      "cumulativeGasUsed": "0x781c8",
      "gasUsed": "0xe77e",
      "contractAddress": null,
      "logs": [
        {
          "address": "0x779877A7B0D9E8603169DdbD7836e478b4624789",
          "topics": [
            "0xddf252ad1be2c89b69c2b068fc378daa952ba7f163c4a11628f55a4df523b3ef",
            "0x000000000000000000000000dfedd116e09ab9a877b08e0e348b6299289643cd",
            "0x0000000000000000000000008103b0a8a00be2ddc778e6e7eaa21791cd364625"
          ],
          "data": "0x00000000000000000000000000000000000000000000000029a2241af62c0000",
          "blockHash": "0x8582d61ef1dd2f1a1d4bd2012615219695e035b9d4c3fbc15f14cb84874c2b28",
          "blockNumber": "0x436415",
          "transactionHash": "0x93ab3e3899e2132ac09475e491bc17c8e884d4959d2df0f40d554069fc8f4292",
          "transactionIndex": "0x9",
          "logIndex": "0x4",
          "removed": false
        },
        {
          "address": "0x779877A7B0D9E8603169DdbD7836e478b4624789",
          "topics": [
            "0xe19260aff97b920c7df27010903aeb9c8d2be5d310a2c67824cf3f15396e4c16",
            "0x000000000000000000000000dfedd116e09ab9a877b08e0e348b6299289643cd",
            "0x0000000000000000000000008103b0a8a00be2ddc778e6e7eaa21791cd364625"
          ],
          "data": "0x00000000000000000000000000000000000000000000000029a2241af62c0000000000000000000000000000000000000000000000000000000000000000004000000000000000000000000000000000000000000000000000000000000000200000000000000000000000000000000000000000000000000000000000001620",
          "blockHash": "0x8582d61ef1dd2f1a1d4bd2012615219695e035b9d4c3fbc15f14cb84874c2b28",
          "blockNumber": "0x436415",
          "transactionHash": "0x93ab3e3899e2132ac09475e491bc17c8e884d4959d2df0f40d554069fc8f4292",
          "transactionIndex": "0x9",
          "logIndex": "0x5",
          "removed": false
        },
        {
          "address": "0x8103B0A8A00be2DDC778e6e7eaa21791Cd364625",
          "topics": [
            "0xd39ec07f4e209f627a4c427971473820dc129761ba28de8906bd56f57101d4f8",
            "0x0000000000000000000000000000000000000000000000000000000000001620"
          ],
          "data": "0x0000000000000000000000000000000000000000000000004563918244f400000000000000000000000000000000000000000000000000006f05b59d3b200000",
          "blockHash": "0x8582d61ef1dd2f1a1d4bd2012615219695e035b9d4c3fbc15f14cb84874c2b28",
          "blockNumber": "0x436415",
          "transactionHash": "0x93ab3e3899e2132ac09475e491bc17c8e884d4959d2df0f40d554069fc8f4292",
          "transactionIndex": "0x9",
          "logIndex": "0x6",
          "removed": false
        }
      ],
      "status": "0x1",
      "logsBloom": "0x0000001400000000000000000001008000000000000000020000000002000000000000008000800000000000000000000000000000000000000000000000000000000000000000000000000800000000000000000000000000002000000000000000000000000000000000000000000000000000400000000000001000000000000000200c000020000000040000800010000020000000000000000000000000000000000000000000000000000000000000000000000000000400000000000000000002000000000000000000000000000000000000000100000000000000000000000000000000000000000000000000000000000000000000000000000000",
      "type": "0x2",
      "effectiveGasPrice": "0x3034ae2b6"
    }
  ],
  "libraries": [],
  "pending": [],
  "returns": {},
  "timestamp": 1696342213,
  "chain": 11155111,
  "multi": false,
  "commit": "84c6d72"
}